:20000000318081ED46C37C02856FD024C90000003A0280A0C90000005E23562346231824C5
:20002000E5212380CBA6182BE5212380CBE61829E52122FF36001827E5D5C5F3CD2401FBCD
:20004000C1D1E1C94E78A728020CAF121310FC0D20F9C92E29CBB6E1C92E29CBF6E1C93678
:2000600080E1C9000000F5AF3222FF3230FFED57F5C5D5E5D9C5D5E5ED735C80210180CB45
:20008000F6AF115B8012210080010200862310FC0D20F9ED44123E013214FF18FE00000061
:2000A000000000001E4F1849F5C5D5E5210800395E2356210BF01930041E4F1834CD77015E
:2000C000CD9D010E0321368079878787CFCDBC010D20F2CD5A02CDCE0D212A800188097E9B
:2000E000ED792B0D10F9E1D1C13E013234FFF1FBC9F3AF018009ED790C10FB3E013218FF5C
:200100003E80D384AFD38416792101020E84ED790DED510CED6110FEED790DED590CED694B
:2001200010FE18EAA7C82192198787CFEB1AA7280821F0190E0ECD6601131AA7280821A577
:200140001A0E13CD6601131AA7280821391B0E18CD6601131AA7C83218FF3A2680CBFFD3FB
:2001600084CBBFD384C906800287CF033E0102037E0203237E02C92102800180FFCD8F01BD
:200180007AA37723060FCD8F010600CD8F01C9ED785677AA5F7AA8A32377230CC9212B80AC
:2001A00006055E23567AB328051B722B73232310F106097EA72801352310F8C9545D7EA735
:2001C000C83D20192335C02BCD410223233528097E215210CF7E1312C93E0212C93D201F0F
:2001E000CD41023A0880410F10FD232323300836FF2336142370C92335C036132334C93D73
:200200002031CD41023E04CFE535200E361323347ED61538057720022B34E17EFE11D02385
:200220007E23BEC02E2179CF7EF60F77EB36042336D6C92335C02E2179CF7EE6F077AF12B6
:20024000C9E53E07CF347EE607214B10CF4621218079CF7EE6F0B077E1C92136807EA7C0C1
:2002600036360100022E567EA7280335CBF1CB092310F42E2279F6CFA6A977C9AF21000062
:20028000011C00862310FC0D20F9A7280218FE210010061D16FF5E237E231210F93E013268
:2002A00018FF3E80D384AFD384DB80CB7728203100822100807E3DFE0638043A3A1077CD10
:2002C000F203CD1804FBCD2104F3CDF2031812DB81CB5F2813310082CD5D04CDF203CD182B
:2002E00004FBCD6904C348033A0180E64028542A5C8011C281ED52384AAF210080010200EC
:20030000862310FC0D20F9A72039ED7B5C80CD5D04213B10DFCD1804CD6904DB8032028013
:20032000DB81320580DB82320780210180CBCECBB6E1D1C1D9E1D1C1F1E24003F1FBED45E5
:20034000F1ED451E06C3F1000638CD0A0F21F67C223380213F10DFF321EA8101001671239D
:2003600010FCFBCD7704CD9904CD1A0F3A5F800F3830EF3A1880FE02280A2A33807CB5201D
:20038000033E01FFCD3D0FF7CDEB04CD3A05CD0D06CD9B063A5880A728D9CD3D0730E8E72C
:2003A000180CCDA707F7CDEB04CD3D0730F7CDC007CD5D04CDDE0AF7CDDF0730FACDFE0796
:2003C0003EE0CD18080638CD0A0FF7CD5C0FCD8E0FCD3B0838ECCD5C0830EFCD6A08DC8F27
:2003E0000BCDE20820E4CDEE08CD7709CDFB09C34803D121018001FF013E5577BE20142FA9
:200400007796200F77230B78B120EED521FF0F220A80C91E5BC3F1003E803222FF3230FFAC
:20042000C9110C803EFF1221008046132E0678F6F012F73A0380CB6F2010CB5E28F4CB9E9D
:20044000043E06B830E8060118E43EF012F73A0480CB7728F82E0070AF121B12C93A00801B
:200460003DFE06D81E7DC3F100DB81E605472101807EE6FAB077C9010C00212911117D8020
:20048000EDB0211E8036E02E01CBAECBFEED4389802E584E702E6A70C9215E807E36001167
:2004A0005F800F3011211801222F8079325A803E08FFEBCBC6C90F30152E22CBF62E24CB71
:2004C000EE210C08228B803E06FFEBCBCEC90FD02E22CBFE2E24CBF6211E03228D803E047E
:2004E000FF3E0412C93A5F80E606C91139803E07122123804EF70608D7280EE72E01CB9E4E
:200500001AA720F116DCCD0E05CB61C8EFC9210E80462E0D5E723E16FFF73A0680E60A2869
:20052000F8733E17FF780606FE05280B0604FE0628050610FE03C078FFC9210180CB66C05D
:20054000CD9D05C0CDA405C00630D7C0ED5B02807AABE607C07AE607010300040F38040D06
:20056000C818F8CDAB05280206011158801AB8C83810CB7EC8CB9ECBAE2E0C862777AF1218
:2005800018113A0C80A7C8CB9E78EB96472E0CBE380146E7CDB105CDAB05C0EFC93A0780BD
:2005A0002FE6E0C93A05802FE630C93A5F80E602C9F73A3580A720F9CDC605CD04063E385B
:2005C00032358010ECC9AF211F807723772377320D803E0BFF2E58347E4F216410CF11272B
:2005E00080F31AE6E0B612FB215A80563A5F80CB4720091603E6022803E7160179BAC02EF5
:2006000001CBEEC9110C801AD6012712C9CDAB05C0CD9D05C00627D7C0210380CB66C8CB2F
:20062000A62E01CB9E110C80CB662806CBA6AF12EFC9CBE6CBBE1AA720073D12CB6EC8E73D
:20064000C9E7CD5506CD0406A720F73D123A0180CB6FC0EFC921D414222D80212380CBFE0C
:20066000F7ED4B2D8078B128250608D728F21139803E6412F7ED4B2D8078B128111AA72884
:20068000110608D720EE1AFE5E30D5CBBEC916DA180216DBCBBECD0E0518BA212380CB665E
:2006A000C8CDA405C82E01CB9EFE10C22C072E3C3652F7CDA405FE30280DFE00C8FE1020E3
:2006C0006B7EA7285818EB2E3D3652F7CDA405FE202811FE3020557EFE1B38413A3C80A700
:2006E000283B18E7F7CDA405280AFE20203E7EA7282B18F02E01CBBECB6E200DCDC605C087
:20070000210180CB66280CE7C93E0BFF2E0C7EC60127772E0C7EFE50D83650E7C9E72E0D87
:200720004E36CAF7CDA40520FA71EFC9E72E0D4E36CBF73A0680E60A28F871EFC9CD9D05EB
:20074000203C0617D720372A02807CADCB6F202E210180CBDE2E03CB6EC82E585ECD8407DC
:200760001D20FA0183C0F3ED680CED78B0672262800CED680CED78B067226480FB372101E7
:2007800080CB9EC93A5F80E607C02176133A0080CF4E06002A60807C2FA7ED42B4073803D9
:2007A000210080226080C9F72A2F807CB520F8212480CBE6CDC605C8213800222F8018E7B5
:2007C0000601CDAB05200206033A58803DB838051E66C3F1002156803C87F38677FBC92A56
:2007E00031807CB5212380200ACBAE218B0822318037C97EE620C0CBEE3E0CFFA7C93E0D28
:20080000FF060321458034343434CB863E08CF10F521F67C222B80C9214E8011080001017C
:2008200003F307300FE571237123361323722336142372E1A7ED5210E9FBC9213E80110813
:20084000000120037EFE02200DE53E05CF7EE1FE1738037937C9CB211910E9C921418011F0
:2008600008007E19A619A6C837C93A3780A7C02A2B807CB5211E80200D01200379A62048B7
:20088000CB2110F8A7C90637D720367E2F47CD9D05A0202DED5B07807AAB2FE6E020227A95
:2008A000A65701200379A2201FCB2110F87E0F0F2FE638477E070707E607B047CD0A0FA795
:2008C000C90638CD0A0FA7C979AE772E6A34233E0490770638CD0A0F3E6C3237803E0EFFE3
:2008E00037C9213E801108007E19B619B6C9210019CDE504280A213219FE042803214F19D7
:200900003A5880873D47E5CD2309E110F93A5E80CB572806F3214310DFFBF73A0E80FE0884
:2009200030F8C94E23788616805F231AA628414F235E1AA11E6DC2F100231E5E1AB61223A9
:200940007EFF237E234E21598086FE0F38023E0F7778215619CF7E211F80B677215A19782F
:200960008781CF7E234E212080B6777923B677C93E06CF0D20AFC9215880015E800A0F3850
:200980000C237EA7C8CDE50420033E10FF115780F31A868612FB0A0FD82E01CB66202B3A31
:2009A0000C80FE503024CDE8092138803626F77EA720FB2E0C7EC60127773E12FF237EC60C
:2009C0000127772E593520D71816CDE809CD55063E12FF210D807EC60127772E593520EA0B
:2009E000CDE504C03E11FFC9CDE504C02161807E2F34A607D0367F2B36FFC9215F807E0F29
:200A0000300736002E24CBA6C90F30372E8C3A1F80E60428033528032B35C02E22CBB62E40
:200A200024CBAE2E5FCB8ECB56200A21FF0F220A803E07FFC92E8E3528142B7EA7280F3E0E
:200A400004FFC90FD02E8D35C02E5ECB4EC0AF325F80320D8021FF0F220A80321F80212763
:200A600080F37EE6E077FB2E24CBB63E05FFF73A0E80FE0728F82E22CBBE2E01CB46281201
:200A8000CB66200E3A0C80A72808CD5506CD040618F2210180CB5628242E0A36EE2E3B3647
:200AA00017F73A03800738113A0680E60A200A3A05800738EA7EA720E82E0A36FF3100820C
:200AC000213F10DFF32101807EE61577214710DF21EA81010016712310FCFBC34803CDAB27
:200AE000052804CD1B0BC921571011C0003A5880471910FD1E203A0080471910FDEB2A6255
:200B0000803A5F80FE042004CD3E0BC93A6880E60F2804CD5E0BC9CD7A0BC90E082A6480B6
:200B2000ED5B35111938010C0604CD2E0BC9798787217913CF116680480600EDB0C9EB0156
:200B4000180009EB010304CD500B0604CD2E0BC9C51A4F131A471309C1D80C10F3C9CD671D
:200B60000B0602CD2E0BC93A6180073006010C00EB09EB010304CD500BC9CD670B380A01D4
:200B80000102CD500B38020E070604CD2E0BC93E05CDDC0B7EFE153802D6152E6B462377DC
:200BA0002336002336F8215D10CFAF111B00C6051910FBD9211511CFEBD93E02116F800E63
:200BC00007EDB00E4A093D20F6CDE80BCD850CCD940CCD9D0CCDAE0CCD960DC9213680CF56
:200BE0003A6B80878787CFC93A6B803DC021A1130601CDF60BC9E5C516805E231A4FCD090E
:200C00000CC1E13E0BCF10EEC916805E1AA123A6C83A6D80FE04D05F237E23D906804FD964
:200C20007E23D926806FD97E23FEF828021EFF3A6E800F0F0F473E05F5D9E5D5C5D9CB3866
:200C40003020E5C53A5880873D47D91A13814F0AA62CD9A6A128061C7BFE0518032310EAAB
:200C6000C1E1CB1AD9C10CD1E1D9F13D20CA7AE6F8C82BAE216E80A6770100050738010C2D
:200C800010FA2B71C93A6A80FE03C021AC130602CDF60BC921CD130602CDF60BC93A1E8009
:200CA000E6E0FE20C021C2130601CDF60BC92A89807CB520573A1E80E6E0FEC0C25A0D217B
:200CC000E31346234E235E2356233A6680B820F23A68809120ECEB5E235647ED5FF68023B3
:200CE000048630FB626B3E16CF10FB4623E53A6C80CF7EE1FEC830EC228980010005D62891
:200D0000CB1910FA3A6E80A12061185C3A6B80FE02201C3A6C80CF7ED62830FCC62801003A
:200D200005D608CB1910FA3A6E80A1203E18391E0401040078FE05281B3A6C8080FE153894
:200D400002D61504CB212A8980CF7EA328E63A6E80A1202BCB3B30D9181C3A6680E61F20E9
:200D6000153A6880E60F200E3A6E800F0F0F0600040F30FC18093A6E800606050730FCAF43
:200D8000CDDC0BE53E06CF3A6C8080FE153802D61577E13603C978216E80CFEB217F80010D
:200DA00000003A5880873DF5E5D91A13D9835F1AA677B047D53E07835F3E05CF1AA677B19E
:200DC0004FD1E123F13D20DF2E7D702371C9AFD383D3842109807EFE021F77E67F2E267700
:200DE000110D800F30121ACD540ECD5F0E210180CB5EC82E25CBFEC90F30091A0F0F0F0F6B
:200E0000CD540EC91B0F30051ACD540EC90F30091A0F0F0F0FCD540EC91E0A0F300D1ACD78
:200E2000540E2E0E012800CD830EC90F30111A0F0F0F0FCD540E2E1301271FCD830EC9132D
:200E40000F300D1ACD540E2E18012A00CD830EC9CDE90EC9E60F216810CF7E322580C9213C
:200E60003A807EA7C03A1F80A7C836382E27AE773A1880A7C0ED4B2080792E29AE77782302
:200E8000AE77C926807EA7C82335C0235E23561AA720062B2B2B7718493C200A3218802E21
:200EA00029CBFE2F183C3C2009EB237E23666FEB18DD3C200A23352B20EF13131318D03C9F
:200EC000200623131A77132B1AF5E63F1313722B732B77F1E6C02808E6802E29CBBEB677A1
:200EE0001B1A5F697EA0B377C9210180CB4EC8CB8E06163A0E80FE02280B0604FE062805B6
:200F00000606FE05C078CD2401C91129801AE63FB8C8F31AE6C0B012FBC9ED4B8D803A5F3F
:200F200080FE04280D218C804EFE062805E602C8060E79216F19CF4EED430A80C9CDE50412
:200F4000C0210380CB76C8E72E0D463A0080F6F077F73A0480CB7728F870EFC9CDE504C0F0
:200F60003A6A80FE02D8211D80280F7EA7C836003A1380FE03C03E0AFFC93A3780A7C07EE9
:200F8000A7C03A7E80E60FC836FF3E09FFC90608213680CB38D83E08CF7EFE0420F5111E18
:200FA000801AA020EE1AB0123E0FFF3A6A80FE03D82E7E7EE60F28052E24CBBEC92B7E2EFD
:200FC00066A6C03A6880E60F28042E24CBFE2A89807CB5C8218D193A3780FE2ED0FE1B30BE
:200FE000033E04CFED5FF6800602238623380310F9C97EFFC90000000000000000000000F4
:201000001400000002000405060008001600180019001AFF1B00220023112407251E27003D
:201020001CE81D032601300031193200331E35052A512B1234013A003C00048F8031018FF7
:20104000805B0162802D000D808200030206040C080901010202020203030303040506073E
:2010600008090A0B64040E1F3F065B4F666D7D077F6F79733976FC000102000804020408CD
:201080000002010008040204021004080001020008040219050101011905010319010501A9
:2010A00003190105011901011905010101190503190105190101010519030101051903052C
:2010C00001190105031901051900000C00000000000100000C000000000002000001000099
:2010E0000C0000000000000200000000000000000C000000000200000100000002000000D1
:201100000000000000000A000000000400000000000A00010000000000000101FE02FE01B5
:2011200001FE01000101FE00021F0F1F1F1F1F1F0F0F0F0F0F99399F011C00C300C5080B70
:20114000000900EF016300EE02C5080B00090005000100080049129F011C00C300C5080BA2
:20116000000A00EF016300EE02C5080B000A0006000100080049129F011C00C300C5080B7F
:20118000000B00EF016300EE02C5080B000B0007000100080049129F011C00C300C5080B5C
:2011A000000C00EF016300EE02C5080B000C0008000100080049129F011C00C300C5080C38
:2011C000000D00EF016300EE02C5080C000D0009000100080049129F011C00C300C5080D13
:2011E000000D00EF016300EE02C5080D000D000A0001000800491230021D00EF01C5081A24
:201200000018005802C8007206C5081A0018001E005A00D007491230021D00EF01C5081A4D
:201220000019005802C8007206C5081A0019001E005A00D107491230021D00EF01C5081A2A
:20124000001A005802C8007206C5081A001A001E005A00D207491230021D00EF01C5081C05
:20126000001A005802C8007206C5081C001A001E005A00D307491230021D00EF01C5081EE0
:20128000001A005802C8007206C5081E001A001E005A00D407491230021D00EF01C50820BB
:2012A000001A005802C8007206C50820001A001E005A00D507491210041E000302C5083789
:2012C000002B00EA0BD200D007C50837002B00320064008813491210041E000302C5083A4C
:2012E000002E00EA0BD200D007C5083A002E0032006400EC13491210041E000302C5083CBD
:20130000002F00EA0BD200D007C5083C002F00320064006A18491210041E000302C5083D14
:20132000003100EA0BD200D007C5083D00310032006400161C491210041E000302C508403C
:20134000003300EA0BD200D007C5084000330032006400531C491210041E000302C50844D4
:20136000003300EA0BD200D007C5084400330032006400841C4912606060606468000F0369
:201380000C000F0C03010E000F020D000F040B000F0807000F000F000F1807000F001F0040
:2013A0000F677D016F7FF80101010101677D1E6F7FF81E1E1E1E1E697E0F7684F80F0F0FBB
:2013C0000F0F677D0C6F7FF80804040004667D1F6F7F001F1F1F1F1F687E0F7684000F0F6D
:2013E0000F0F0F0003231408034D140203371404033F1401034314000C2F14080C6E14022E
:201400000C3B14040C6514010C481408006E14020061140400651401006914000051141806
:20142000006E145C1425010417070E010201263815511602051101BC156E12E8152858148B
:2014400016641C4016572801821601433CC4167F01F01601010A0C230107010F0504120535
:201460000D2418017F50183C447C18280157BE18017F024820C09898482020989870E8C027
:20148000C04820202020C070036040DAD0C8D4C8DC82504CC094BA38083C18DEA879044004
:2014A00008D2B888582C10D0C8E8E4B888583008DAD47C6005B098E0D8D0CCE8E4D8A87C57
:2014C000C09C683808C8E8E4E8E4068054E0B080504C18B888A8ECE0D8D0C8C8DCE8E4B0C6
:2014E000074010D4C8D8D0CCD8E8D8B0CCC098683808CCD47C7008E0DCA87A603410E2E891
:20150000E0DCA87A7040885C4015D0CA09582AE8E0D8D1E8E4885828E8E4B082683808CC28
:20152000B88C017870E4D8D0CCE8E4B08050E8E4B080504820E4D8A8019870E8E8E8E8E831
:20154000E8E8E8C0E8E8E8E8E8E8E8E8E8C005E8482098987020C098E8E8188870C0987016
:20156000E8E0B09803582800C8D8D1E8EE90683908CEE088603508CEE08D013808CAE088D7
:20158000582CD0C8D8D0CCC878603000DCAA7D5006E0C8D078603400E2E0E0CCC87A6040BE
:2015A000006430CCD0CD04C8ECE03C08CCE8E0DCD0CCE84014D0C8CCE8E4D8D4027040106C
:2015C000D0C8D4C8C498683E08CCD8D0C8EAE0DCAA7C02B08050E8E0DCD0CCE8B88CA87CB3
:2015E000683808CA30CCE8E001987098C098603800A090B8D8A098704820E8C098C002480A
:2016000018482098703C00C098708C7040204820D8B4986801C8E8684818D8D0C8E8B888DD
:201620005828603000E848E4D8D002A498B8885C2820E0D8AC78E8E0D8AC78504C18D88010
:201640000178C8E0D8D0D0C8B0B8D0C8A0B8A878502818D8A8A80218C8C8C8B080504010B7
:2016600008D0E8E0E0D8D8A88060401003E8E8E8E8E8E8E8E8E84820E8E8E8E8C09870481F
:2016800020E8011028A078B080504010D8C8A078B088C8C8C8D0C8E00208280878B0D4C863
:2016A000E4E0D8CE007C60D0C8D6A07C502E03D02808C8D8AC786C3810D4007C6030C8AC0D
:2016C000C8CCC8CC01D8D0C8E0D8D0AC80503808CCD0C8D8A878DCD0CEE0027044B080741D
:2016E0004010D078744010D0E8BC88704014A87801C8D8D0C8C8C8E000C8C8E0D800A0C855
:20170000D0C8C8C8C8C805603400DCD4C8CEA080643200DCD2DCD5C8DED0A18401E0D4A22B
:201720007C503004D0CCD8DCC8DCD0B482683C08CEC80EDEC9C85C3A08CCE0DCD2D0CCD08C
:20174000BA8C5C3816C8CDE0033A08CCE28C5C2812D4DAD4C8DC826432CCD8D2786C02D0A5
:20176000CCD0D4CCC8CEC8CCD0C8A480503405D8DED0E5DA04603402E4DDD0CAD09462308E
:2017800004D0E08C5A2814D0A29406D1CCD27C543000D6CDD4D8D679503402582C10E6C892
:2017A0000AAC7E5C2E04D6CCCCCEA484562C0ECCDCDEDCD0CCDE08CCAE9064D2C8E4E0DCE7
:2017C000D2C8E4E0B08C592C0AE0DDD00D3A0DCAD07C522804CAD8D4C8CA7C523406D8D3B0
:2017E000785409E0DCD27C504010D4CCE0D8D0CCC8E48A582C10D4C80BD1CCD0CCDAD4CA54
:20180000D0CCE2D8D4C8A49260340AC8D4C80C6C3A08CCDAD0E4D894623004D8B8946230D2
:2018200004D0CA9007D8D4A294603418D8E4E0DCD0CCE0B0806C3808CCC8023A087C6A94C3
:201840006D2802A4925C280679543204D8A8785401D0CCD2CCE0D8D0CCC8E0D8D47850280F
:201860001CD830C8D4C80250986C3808C8E8BC88A878704410582C20E8E0B4800158401029
:2018800080503018D8E0C8D0E0D8E06030004010A8C802D808CCE2D8D4A08E693A0CC8B661
:2018A0008160AC7A603400DC03092C0A7DB08054300CCCD056885C2CDAD1A480563801D002
:2018C000DCD0E4D8D07C603400E8E4D8D0CCE2D884504410024C18885C2810D8C8CCE0E0F0
:2018E000D0C8A488582814B0785001C8E0E4D080543808A8786C3810C8C8DCD8C8C8DCC85B
:20190000077E01670000020A7E026700000F007E046700000A007E0867010000008301690A
:2019200004020F0083026904030F00830C6902000F00047E01670000020A7E026700000F99
:20194000007E046700000A007E086702000400017E186700000F000408021001009280243F
:2019600000490054801100020004000100040001F1F2F3F4F5F6F7F8F9101112131415160B
:2019800017181920212223242526272829306413141434144B15000002000807030E0908E8
:2019A000040F0609000C070A05020506000D010100090405000B0003000A00010109000092
:2019C0000104000000070000000300000005000000060304000001010000000000080000DC
:2019E000060000000700000008000202001001010001041A051A0A1A151A211A361A471A3F
:201A00006A1A891A00013CFE051A04E704DB04BD047EFE0A1AFC0404820441FD171A0B3CD6
:201A2000001266091809E71BAA1B551B991B661CC31C3CFE271A2DFF2D552EAA173317CC8A
:201A4000175516AAFE3C1A0A030B0C0A300BC015081510150C153015061560150715E02A6A
:201A6000C3209934E73BFF1BFF0038FFFC070803080C083008C00830090CFD6E1AFC04034D
:201A80005504AAFD7F1A1800000AC30A660A3C0A660AC3FC0A0F550FAAFD951A08000818DE
:201AA000083C087E08FF00BB1ABC1AC11ACD1AD61AE21AF11AFF1A111B1E1B0001E0FEBCD8
:201AC0001A1AC0FC0508200800FDC51A00044004A00400FECD1AFC04044004A0FDD81A0B52
:201AE000E00012A012401B401BA01B001CA0FEE61AFC08126012C011A0FDF31A1B000019E0
:201B0000E01900FC051E601EC0FD051B200008E0003BE03BE012E02EA02D40FE171B2AE0AD
:201B2000FC08072007400780FD221BFC0215A0150015401500FD2D1B2CE0004B1B4C1B73AF
:201B40001B8F1BA31BC71BCA1BD61BFF7B0448047B4048407B1048107B024802FB00C800D0
:201B60007B2048207B0148017B8048807B084808FE4C1BFC0B444044C8C399C4334426C38B
:201B800004C4A044F4435E440B4401FD751BFFFC0A46124690C6C0C668462D4607FD911B93
:201BA000DEFFFFFC034A494A0B4A134A924AD04AC84A494A0B4A074A26CA24CAA0CAC04A28
:201BC000C8FDA51B4200FF4A00FFFC02C3F8C3C7433FFDCC1BFFC3BFC3F7C3FEC3FDC3FBD3
:201BE000C3DF43FFC37FFF1D000000000000000000000000000000000000000000000000A3
:201C0000B6AFCADFAFCADF000000000000000000BBD0B020B6CCDEBCB7B6DEB2BCAC000082
:201C200000000000000000000000000000000000C5B6C9DCC0D820C0B8D400000000000080
:201C4000313939382F30332F30350000000000000000000000000000000000000000000083
:201C6000000000000000000000000000000000000000000000000000000000000000000064
:201C8000000000000000000000000000000000000000000000000000000000000000000044
:201CA000000000000000000000000000000000000000000000000000000000000000000024
:201CC000000000000000000000000000000000000000000000000000000000000000000004
:201CE0000000000000000000000000000000000000000000000000000000000000000000E4
:201D00000000000000000000000000000000000000000000000000000000000000000000C3
:201D20000000000000000000000000000000000000000000000000000000000000000000A3
:201D4000000000000000000000000000000000000000000000000000000000000000000083
:201D6000000000000000000000000000000000000000000000000000000000000000000063
:201D8000000000000000000000000000000000000000000000000000000000000000000043
:201DA000000000000000000000000000000000000000000000000000000000000000000023
:201DC000000000000000000000000000000000000000000000000000000000000000000003
:201DE0000000000000000000000000000000000000000000000000000000000000000000E3
:201E00000000000000000000000000000000000000000000000000000000000000000000C2
:201E20000000000000000000000000000000000000000000000000000000000000000000A2
:201E4000000000000000000000000000000000000000000000000000000000000000000082
:201E6000000000000000000000000000000000000000000000000000000000000000000062
:201E8000000000000000000000000000000000000000000000000000000000000000000042
:201EA000000000000000000000000000000000000000000000000000000000000000000022
:201EC000000000000000000000000000000000000000000000000000000000000000000002
:201EE0000000000000000000000000000000000000000000000000000000000000000000E2
:201F0000686365542E452E4C0000F40F00000000000000000000000000000000000000004D
:201F20000000000000000000000000000000000000000000000000000000000000000000A1
:201F4000000000000000000000000000000000000000000000000000000000000000000081
:201F6000000000000000000000000000000000000000000000000000000000000000000061
:201F8000000000000000000000000000000000000000000000000000000000000000000041
:20FF00000000000005000000000000000000000000000000000000000100FF00E8030000F1
:20FF200000000011071E010000005112000000000019001E010500000000000000000000EA
:20FF40000000000000000000000000000000000000000000000000000000000000000000A1
:20FF6000000000000000000000000000000000000000000000000000000000000000000081
:20FF8000000000000000000000000000000000000000000000000000000000000000000061
:20FFA000000000000000000000000000000000000000000000000000000000000000000041
:20FFC000000000000000000000000000000000000000000000000000000000000000000021
:20FFE00000000000000000000000000000000000000000000000000000000000000000FF02
:00000001FF
