:200000000000000000000000000000000000000000000000000000000000000000000000E0
:200020000000000000000000000000000000000000000000000000000000000000000000C0
:200040000000000000000000000000000000000000000000000000000000000000000000A0
:20006000000000000000000000000000000000000000000000000000000000000000000080
:20008000000000000000000000000000000000000000000000000000000000000000000060
:2000A000000000000000000000000000000000000000000000000000000000000000000040
:2000C000000000000000000000000000000000000000000000000000000000000000000020
:2000E000000000000000000000000000000000000000000000000000000000000000000000
:200100003A30323030303030323030303046430D0A3A3230303030303030333138303831D0
:200120004544343643333743303238353646443032344339303030303030334130323830DD
:20014000413043393030303030303545323335363233343632333138323443350D0A3A324A
:200160003030303230303045353231323338304342413631383242453532313233383043BD
:2001800042453631383239453532313232464633363030313832374535443543354633433F
:2001A0004432343031464243440D0A3A32303030343030304331443145314339344537388B
:2001C0004137323830323043414631323133313046433044323046394339324532394342F8
:2001E000423645314339324532394342463645314339333637380D0A3A323030303630303F
:200200003038304531433930303030303046354146333232324646333233304646454435CB
:20022000374635433544354535443943354435453545443733354338303231303138304377
:200240004234350D0A3A323030303830303046364146313135423830313232313030383046
:200260003031303230303836323331304643304432304639454434343132334530313332B7
:20028000313446463138464530303030303036310D0A3A323030304130303030303030301E
:2002A000303030314534463138343946354335443545353231303830303339354532333557
:2002C00036323130424630313933303034314534463138333443443737303135450D0A3A8B
:2002E00032303030433030304344394430313045303332313336383037393837383738373B
:20030000434643444243303130443230463243443541303243444345304432313241383079
:20032000303138383039374539420D0A3A323030304530303045443739324230443130461C
:20034000394531443143313345303133323334464646314642433946334146303138303060
:2003600039454437393043313046423345303133323138464635430D0A3A323030313030D0
:20038000303033453830443338344146443338343136373932313031303230453834454469
:2003A0003739304445443531304345443631313046454544373930444544353930434544BB
:2003C000363934420D0A3A3230303132303030313046453138454141374338323139323195
:2003E0003938373837434645423141413732383038323146303139304530454344363630CA
:2004000031313331414137323830383231413537370D0A3A32303031343030303141304585
:200420003133434436363031313331414137323830383231333931423045313843443636D1
:200440003031313331414137433833323138464633413236383043424646443346420D0AAD
:200460003A3230303136303030383443424246443338344339303638303032383743463089
:200480003333453031303230333745303230333233374530324339323130323830303138C5
:2004A00030464643443846303142440D0A3A32303031383030303741413337373233303693
:2004C0003046434438463031303630304344384630314339454437383536373741413546CA
:2004E0003741413841333233373732333043433932313242383041430D0A3A323030314158
:20050000303030303630353545323335363741423332383035314237323242373332333229
:200520003331304631303630393745413732383031333532333130463843393534354437E1
:2005400045413733350D0A3A3230303143303030433833443230313932333335433032421D
:200560004344343130323233323333353238303937453231353231304346374531333132B5
:200580004339334530323132433933443230314630460D0A3A3230303145303030434434BC
:2005A00031303233413038383034313046313046443233323332333330303833364646327D
:2005C000333336313432333730433932333335433033363133323333344339334437330D8F
:2005E0000A3A32303032303030303230333143443431303233453034434645353335323076
:2006000030453336313332333334374544363135333830353737323030323242333445311D
:200620003745464531314430323338350D0A3A323030323230303037453233424543303227
:2006400045323137394346374546363046373745423336303432333336443643393233336D
:20066000354330324532313739434637454536463037374146313242360D0A3A32303032AD
:20068000343030304339453533453037434633343745453630373231344231304346343646
:2006A000323132313830373943463745453646304230373745314339323133363830374524
:2006C0004137433043310D0A3A3230303236303030333633363031303030323245353637D2
:2006E0004541373238303333354342463143423039323331304634324532323739463643D4
:20070000464136413937374339414632313030303036320D0A3A3230303238303030303168
:200720003143303038363233313046433044323046394137323830323138464532313030D8
:200740003130303631443136464635453233374532333132313046393345303133323638BB
:200760000D0A3A3230303241303030313846463345383044333834414644333834444238B3
:20078000304342373732383230333130303832323130303830374533444645303633383092
:2007A000343341334131303737434431300D0A3A32303032433030304632303343443138B3
:2007C0003034464243443231303446334344463230333138313244423831434235463238DF
:2007E00031333331303038324344354430344344463230334344313832420D0A3A3230305A
:200800003245303030303446424344363930344333343830333341303138304536343032F8
:200820003835343241354338303131433238314544353233383441414632313030383030D2
:20084000313032303045430D0A3A3230303330303030383632333130464330443230463935
:20086000413732303339454437423543383043443544303432313342313044464344313839
:2008800030344344363930344442383033323032383031330D0A3A323030333230303044FD
:2008A000423831333230353830444238323332303738303231303138304342434543424237
:2008C0003645314431433144394531443143314631453234303033463146424544343545BC
:2008E000350D0A3A3230303334303030463145443435314530364333463130303036333886
:200900004344304130463231463637433232333338303231334631304446463332314541B5
:2009200038313031303031363731323339440D0A3A3230303336303030313046434642434B
:2009400044373730344344393930344344314130463341354638303046333833304546335C
:200960004131383830464530323238304132413333383037434235323031440D0A3A3230E1
:20098000303338303030303333453031464643443344304646374344454230344344334106
:2009A0003035434430443036434439423036334135383830413732384439434433443037FC
:2009C00033304538453732430D0A3A3230303341303030313830434344413730374637435D
:2009E00044454230344344334430373330463743444330303743443544303443444445307E
:200A00004146374344444630373330464143444645303739360D0A3A3230303343303030E5
:200A200033454530434431383038303633384344304130464637434435433046434438453C
:200A4000304643443342303833384543434435433038333045464344364130384443384609
:200A600032370D0A3A323030334530303030424344453230383230453443444545303843B3
:200A800044373730394344464230394333343830334431323130313830303146463031335C
:200AA0004535353737424532303134324641390D0A3A3230303430303030373739363230C3
:200AC0003046373732333042373842313230454544353231464630463232304138304339F6
:200AE000314535424333463130303345383033323232464633323330464641430D0A3A322C
:200B0000303034323030304339313130433830334546463132323130303830343631333234
:200B2000453036373846364630313246373341303338304342364632303130434235453295
:200B40003846344342394539440D0A3A3230303434303030303433453036423833304538EC
:200B600030363031313845343345463031324637334130343830434237373238463832456C
:200B8000303037304146313231423132433933413030383031420D0A3A32303034363030F6
:200BA000303344464530364438314537444333463130304442383145363035343732313016
:200BC000313830374545364641423037374339303130433030323132393131313137443829
:200BE0003032300D0A3A323030343830303045444230323131453830333645303245303192
:200C000043424145434246454544343338393830324535383445373032453641373043395B
:200C2000323135453830374533363030313136370D0A3A3230303441303030354638303060
:200C40004633303131323131383031323232463830373933323541383033453038464645B4
:200C600042434243364339304633303135324532324342463632453234434237310D0A3A82
:200C8000323030344330303045453231304330383232384238303345303646464542434237
:200CA0004345433930464430324532324342464532453234434246363231314530333232DD
:200CC000384438303345303437450D0A3A3230303445303030464633453034313243393372
:200CE00041354638304536303643393131333938303345303731323231323338303445460C
:200D000037303630384437323830454537324530314342394534450D0A3A3230303530302C
:200D2000303031414137323046313136444343443045303543423631433845464339323170
:200D4000304538303436324530443545373233453136464646373341303638304536304168
:200D6000323836390D0A3A32303035323030304638373333453137464637383036303646EB
:200D8000453035323830423036303446453036323830353036313046453033433037384666
:200DA00046433932313031383043423636433035440D0A3A32303035343030304344394488
:200DC0003035433043444134303543303036333044374330454435423032383037414142EB
:200DE0004536303743303741453630373031303330303034304633383034304430360D0A86
:200E00003A3230303536303030433831384638434441423035323830323036303131313510
:200E2000383830314142384338333831304342374543384342394543424145324530433833
:200E400036323737374146313231380D0A3A32303035383030303138313133413043383038
:200E6000413743384342394537384542393634373245304342453338303134364537434402
:200E80004231303543444142303543304546433933413037383042440D0A3A32303035416F
:200EA00030303032464536453043393341303538303246453633304339334135463830450F
:200EC0003630324339463733413335383041373230463943444336303543443034303633FB
:200EE00045333835420D0A3A3230303543303030333233353830313045434339414632315C
:200F00003146383037373233373732333737333230443830334530424646324535383334DC
:200F20003745344632313634313043463131323732420D0A3A32303035453030303830462A
:200F4000333141453645304236313246423231354138303536334135463830434234373274
:200F6000303039313630334536303232383033453731363031373942414330324546350DBB
:200F80000A3A323030363030303030314342454543393131304338303141443630313237A6
:200FA000313243394344414230354330434439443035433030363237443743303231303311
:200FC0003830434236364338434232460D0A3A323030363230303041363245303143423958
:200FE00045313130433830434236363238303643424136414631324546433943424536437E
:20100000424245314141373230303733443132434236454338453733440D0A3A32303036F3
:201020003430303043394537434435353036434430343036413732304637334431323341A7
:2010400030313830434236464330454643393231443431343232324438303231323338309A
:201060004342464530430D0A3A3230303636303030463745443442324438303738423132A0
:2010800038323530363038443732384632313133393830334536343132463745443442325D
:2010A000443830373842313238313131414137323838340D0A3A32303036383030303131D3
:2010C0003036303844373230454531414645354533304435434242454339313644413138AB
:2010E0003032313644424342424543443045303531384241323132333830434236363545AD
:201100000D0A3A3230303641303030433843444134303543383245303143423945464531F7
:20112000304332324330373245334333363532463743444134303546453330323830444681
:20114000453030433846453130323045330D0A3A32303036433030303642374541373238E7
:20116000353831384542324533443336353246374344413430354645323032383131464532
:2011800033303230353537454645314233383431334133433830413730300D0A3A323030C9
:2011A000364530303032383342313845374637434441343035323830414645323032303325
:2011C000453745413732383242313846303245303143424245434236453230304443444395
:2011E000363035433038370D0A3A323030373030303032313031383043423636323830439E
:20120000453743393345304246463245304337454336303132373737324530433745464558
:2012200035304438333635304537433945373245304438370D0A3A32303037323030303421
:20124000453336434146374344413430353230464137314546433945373245304434453313
:20126000364342463733413036383045363041323846383731454643394344394430354503
:20128000420D0A3A3230303734303030323033433036313744373230333732413032383004
:2012A0003743414443423646323032453231303138304342444532453033434236454338C6
:2012C00032453538354543443834303744430D0A3A32303037363030303144323046413061
:2012E0003138334330463345443638304345443738423036373232363238303043454436BF
:201300003830434544373842303637323236343830464233373231303145370D0A3A323030
:201320003037383030303830434239454339334135463830453630374330323137363133B7
:20134000334130303830434634453036303032413630383037433246413745443432423479
:2013600030373338303344390D0A3A32303037413030303231303038303232363038304330
:20138000394637324132463830374342353230463832313234383043424536434443363012
:2013A0003543383231333830303232324638303138453742350D0A3A3230303743303030C2
:2013C000303630314344414230353230303230363033334135383830334442383338303540
:2013E0003145363643334631303032313536383033433837463338363737464243393241D7
:2014000035360D0A3A3230303745303030333138303743423532313233383032303041436F
:2014200042414532313842303832323331383033374339374545363230433043424545337B
:201440004530434646413743393345304432380D0A3A3230303830303030464630363033CE
:20146000323134353830333433343334333443423836334530384346313046353231463685
:20148000374332323242383043393231344538303131303830303031303137430D0A3A32E9
:2014A0003030383230303030334633303733303046453537313233373132333336313332A3
:2014C000333732323333363134323337324531413745443532313045394642433932313318
:2014E0004538303131303831330D0A3A3230303834303030303030313230303337454645A5
:201500003032323030444535334530354346374545314645313733383033373933374339AA
:20152000434232313139313045394339323134313830313146300D0A3A3230303836303045
:20154000303038303037453139413631394136433833374339334133373830413743303291
:201560004132423830374342353231314538303230304430313230303337394136323034A3
:201580003842370D0A3A3230303838303030434232313130463841374339303633374437B1
:2015A000323033363745324634374344394430354130323032444544354230373830374108
:2015C000414232464536453032303232374139350D0A3A3230303841303030413635373075
:2015E0003132303033373941323230314643423231313046383745304630463246453633E4
:2016000038343737453037303730374536303742303437434430413046413739350D0A3A12
:20162000323030384330303043393036333843443041304641374339373941453737324583
:20164000364133343233334530343930373730363338434430413046334536433332333795
:20166000383033453045464645330D0A3A32303038453030303337433932313345383031C7
:20168000313038303037453139423631394236433932313030313943444535303432383069
:2016A00041323133323139464530343238303332313446313944370D0A3A323030393030BD
:2016C0003030334135383830383733443437453543443233303945313130463933413545FD
:2016E0003830434235373238303646333231343331304446464246373341304538304645B2
:20170000303838340D0A3A3230303932303030333046384339344532333738383631363860
:20172000303546323331414136323834313446323335453141413131453644433246313098
:2017400030323331453545314142363132323341390D0A3A323030393430303037454646F0
:2017600032333745323334453231353938303836464530463338303233453046373737386A
:201780003231353631394346374532313146383042363737323135413139373832460D0AA3
:2017A0003A3230303936303030383738314346374532333445323132303830423637373759
:2017C0003932334236373743393345303643463044323041464339323135383830303135FB
:2017E00045383030413046333835300D0A3A3230303938303030304332333745413743385A
:201800004344453530343230303333453130464631313537383046333141383638363132D9
:201820004642304130464438324530314342363632303242334133310D0A3A3230303941E9
:201840003030303043383046453530333032344344453830393231333838303336323646AA
:20186000373745413732304642324530433745433630313237373733453132464632333739
:2018800045433630430D0A3A323030394330303030313237373732453539333532304437C6
:2018A0003138313643444538303943443535303633453132464632313044383037454336F9
:2018C0003031323737373245353933353230454130420D0A3A32303039453030304344456C
:2018E0003530344330334531314646433943444535303443303231363138303745324633C9
:20190000344136303744303336374632423336464643393231354638303745304632390DC6
:201920000A3A3230304130303030333030373336303032453234434241364339304633300F
:201940003337324538433341314638304536303432383033333532383033324233354330A8
:201960003245323243424236324534300D0A3A3230304132303030323443424145324535B1
:201980004643423845434235363230304132314646304632323041383033453037464643EC
:2019A000393245384533353238313432423745413732383046334530450D0A3A323030416A
:2019C0003430303030344646433930464430324538443335433032453545434234454330BD
:2019E0004146333235463830333230443830323146463046323230413830333231463830F1
:201A00003231323736330D0A3A323030413630303038304633374545364530373746423232
:201A2000453234434242363345303546464637334130453830464530373238463832453244
:201A4000324342424532453031434234363238313230310D0A3A32303041383030304342E2
:201A6000363632303045334130433830413732383038434435353036434430343036313879
:201A8000463232313031383043423536323832343245304133364545324533423336343747
:201AA0000D0A3A3230304141303030313746373341303338303037333831313341303638C7
:201AC000304536304132303041334130353830303733384541374541373230453832453004
:201AE000413336464633313030383230430D0A3A3230304143303030323133463130444651
:201B00004633323130313830374545363135373732313437313044463231454138313031E9
:201B200030303136373132333130464346424333343830334344414232370D0A3A32303004
:201B40004145303030303532383034434431423042433932313537313031314330303033BC
:201B6000413538383034373139313046443145323033413030383034373139313046444576
:201B8000423241363235350D0A3A32303042303030303830334135463830464530343230C9
:201BA0003034434433453042433933413638383045363046323830344344354530424339DC
:201BC00043443741304243393045303832413634383042360D0A3A32303042323030304552
:201BE0004435423335313131393338303130433036303443443245304243393739383738EA
:201C00003732313739313343463131363638303438303630304544423043394542303135D1
:201C2000360D0A3A3230304234303030313830303039454230313033303443443530304246
:201C400030363034434432453042433943353141344631333141343731333039433144386C
:201C600030433130463343394344363731440D0A3A323030423630303030423036303243CA
:201C800044324530424339334136313830303733303036303130433030454230394542304D
:201CA0003130333034434435303042433943443637304233383041303144340D0A3A323084
:201CC000304238303030303130324344353030423338303230453037303630344344324538
:201CE000304243393345303543444443304237454645313533383032443631353245364290
:201D000034363233373744430D0A3A3230304241303030323333363030323333364638325D
:201D20003135443130434641463131314230304336303531393130464244393231313531AB
:201D40003143464542443933453032313136463830304536330D0A3A3230304243303030CF
:201D60003037454442303045344130393344323046364344453830424344383530434344F5
:201D80003934304343443944304343444145304343443936304443393231333638304346C9
:201DA00035360D0A3A3230304245303030334136423830383738373837434643393341366E
:201DC0004238303344433032314131313330363031434446363042433945354335313638ED
:201DE0003035453233314134464344303930450D0A3A323030433030303030434331453140
:201E0000334530424346313045454339313638303545314141313233413643383341364476
:201E2000383046453034443035463233374532334439303638303446443936340D0A3A32E7
:201E4000303043323030303745323344393236383036464439374532334645463832383072
:201E60003231454646334136453830304630463046343733453035463544394535443543FF
:201E80003544394342333836360D0A3A3230304334303030333032304535433533413538B2
:201EA000383038373344343744393141313338313446304141363243443941364131323806
:201EC000303631433742464530353138303332333130454141420D0A3A3230304336303068
:201EE000304331453143423141443943313043443145314439463133443230434137414574
:201F00003646384338324241453231364538304136373730313030303530373338303130E4
:201F20004332440D0A3A3230304338303030313046413242373143393341364138304645DC
:201F4000303343303231414331333036303243444636304243393231434431333036303291
:201F6000434446363042433933413145383030390D0A3A3230304341303030453645304688
:201F800045323043303231433231333036303143444636304243393241383938303743422B
:201FA00035323035373341314538304536453046454330433235413044323137420D0A3A52
:201FC000323030434330303045333133343632333445323335453233353632333341363641
:201FE0003830423832304632334136383830393132304543454235453233353634374544C2
:20200000354646363830323342330D0A3A3230304345303030303438363330464236323631
:20202000423345313643463130464234363233453533413643383043463745453146454326
:2020400038333045433232383938303031303030354436323839310D0A3A32303044303025
:20206000303043423139313046413341364538304131323036313138354333413642383062
:2020800046453032323031433341364338304346374544363238333046434336323830310F
:2020A000303033410D0A3A323030443230303030354436303843423139313046413341369B
:2020C000453830413132303345313833393145303430313034303037384645303532383139
:2020E00042334136433830383046453135333839340D0A3A32303044343030303032443651
:2021000031353034434232313241383938304346374541333238453633413645383041319A
:202120003230324243423342333044393138314333413636383045363146323045390D0AE1
:202140003A32303044363030303135334136383830453630463230304533413645383030AA
:2021600046304630463036303030343046333046433138303933413645383030363036307C
:2021800035303733304643414634330D0A3A32303044383030304344444330424535334568
:2021A000303643463341364338303830464531353338303244363135373745313336303325
:2021C0004339373832313645383043464542323137463830303130440D0A3A323030444139
:2021E0003030303030303033413538383038373344463545354439314131334439383335FB
:20220000463141413637374230343744353345303738333546334530354346314141363780
:2022200037423139450D0A3A323030444330303034464431453132334631334432304446D8
:20224000324537443730323337314339414644333833443338343231303938303745464555
:202260003032314637374536374632453236373730300D0A3A3230304445303030313130E4
:20228000443830304633303132314143443534304543443546304532313031383043423522
:2022A000454338324532354342464543393046333030393141304630463046304636420DE3
:2022C0000A3A3230304530303030434435343045433931423046333030353141434435342F
:2022E000304543393046333030393141304630463046304643443534304543393145304199
:202300003046333030443141434437380D0A3A323030453230303035343045324530453024
:2023200031323830304344383330454339304633303131314130463046304630464344357E
:20234000343045324531333031323731464344383330454339313332440D0A3A32303045D3
:2023600034303030304633303044314143443534304532453138303132413030434438336F
:202380003045433943444539304543394536304632313638313043463745333232353830FA
:2023A0004339323133430D0A3A323030453630303033413830374541374330334131463874
:2023C0003041374338333633383245323741453737334131383830413743304544344232D1
:2023E000303830373932453239414537373738323330320D0A3A3230304538303030414553
:202400003737433932363830374541374338323333354330323335453233353631414137BA
:202420003230303632423242324237373138343933433230304133323138383032453231DB
:202440000D0A3A3230304541303030323943424645324631383343334332303039454232B7
:20246000333745323336363646454231384444334332303041323333353242323045463140
:20248000333133313331384430334339460D0A3A32303045433030303230303632333133E3
:2024A00031413737313332423141463545363346313331333732324237333242373746311B
:2024C00045364330323830384536383032453239434242454236373741310D0A3A32303030
:2024E0004545303030314231413546363937454130423337374339323130313830434234C2
:2025000045433843423845303631363341304538304645303232383042303630344645308D
:20252000363238303542360D0A3A3230304630303030303630364645303543303738434410
:2025400032343031433931313239383031414536334642384338463331414536433042305D
:2025600031324642433945443442384438303341354633460D0A3A32303046323030303886
:20258000304645303432383044323138433830344546453036323830354536303243383037
:2025A0003630453739323136463139434634454544343330413830433943444535303431DA
:2025C000320D0A3A3230304634303030433032313033383043423736433845373245304467
:2025E0003436334130303830463646303737463733413034383043423737323846383730D6
:2026000045464339434445353034433046300D0A3A323030463630303033413641383046DD
:20262000453032443832313144383032383046374541374338333630303341313338304699
:202640004530334330334530414646433933413337383041374330374545390D0A3A323090
:2026600030463830303041374330334137453830453630464338333646463345303946460B
:2026800043393036303832313336383043423338443833453038434637454645303432301A
:2026A00046353131314531380D0A3A32303046413030303830314141303230454531414279
:2026C00030313233453046464633413641383046453033443832453745374545363046329E
:2026E0003830353245323443424245433932423745324546440D0A3A3230304643303030EB
:20270000363641364330334136383830453630463238303432453234434246453241383989
:2027200038303743423543383231384431393341333738304645324544304645314233305F
:2027400042450D0A3A323030464530303030333345303443464544354646363830303630AE
:20276000323233383632333338303331304639433937454646433930303030303030303091
:202780003030303030303030303030303046340D0A3A323031303030303031343030303056
:2027A0003030303230303034303530363030303830303136303031383030313930303141D4
:2027C000464631423030323230303233313132343037323531453237303033440D0A3A32A2
:2027E00030313032303030314345383144303332363031333030303331313933323030336B
:20280000333145333530353241353132423132333430313341303033433030303438463806
:202820003033313031384646370D0A3A32303130343030303830354230313632383032444A
:20284000303030443830383230303033303230363034304330383039303130313032303219
:20286000303230323033303330333033303430353036303733450D0A3A3230313036303050
:20288000303038303930413042363430343045314633463036354234463636364437443039
:2028A000373746364637393733333937364643303030313032303030383034303230343067
:2028C0003843440D0A3A3230313038303030303030323031303030383034303230343032E6
:2028E00031303034303830303031303230303038303430323139303530313031303131399E
:20290000303530313033313930313035303141390D0A3A32303130413030303033313930A1
:20292000313035303131393031303131393035303130313031313930353033313930313055
:2029400035313930313031303130353139303330313031303531393033303532430D0A3A64
:20296000323031304330303030313139303130353033313930313035313930303030304300
:20298000303030303030303030303031303030303043303030303030303030303032303021
:2029A000303030313030303039390D0A3A3230313045303030304330303030303030303018
:2029C0003030303032303030303030303030303030303030303043303030303030303030E2
:2029E00032303030303031303030303030303230303030303044310D0A3A323031313030F8
:202A00003030303030303030303030303030304130303030303030303034303030303030A1
:202A200030303030304130303031303030303030303030303030303130314645303246452A
:202A4000303142350D0A3A323031313230303030314645303130303031303146453030303D
:202A6000323146304631463146314631463146304630463046304630463939333939463009
:202A800031314330304333303043353038304237300D0A3A32303131343030303030303900
:202AA000303045463031363330304545303243353038304230303039303030353030303174
:202AC0003030303830303439313239463031314330304333303043353038304241320D0A98
:202AE0003A3230313136303030303030413030454630313633303045453032433530383030
:202B000042303030413030303630303031303030383030343931323946303131433030432C
:202B200033303043353038304237460D0A3A32303131383030303030304230304546303138
:202B40003633303045453032433530383042303030423030303730303031303030383030EC
:202B60003439313239463031314330304333303043353038304235430D0A3A3230313141DB
:202B800030303030303043303045463031363330304545303243353038304230303043307C
:202BA000303038303030313030303830303439313239463031314330304333303043353092
:202BC00038304333380D0A3A32303131433030303030304430304546303136333030454584
:202BE00030324335303830433030304430303039303030313030303830303439313239464B
:202C00003031314330304333303043353038304431330D0A3A323031314530303030303077
:202C20004430304546303136333030454530324335303830443030304430303041303030C6
:202C4000313030303830303439313233303032314430304546303143353038314132340D00
:202C60000A3A32303132303030303030313830303538303243383030373230364335303809
:202C80003141303031383030314530303541303044303037343931323330303231443030A8
:202CA0004546303143353038314134440D0A3A3230313232303030303031393030353830BF
:202CC00032433830303732303643353038314130303139303031453030354130304431304B
:202CE000373439313233303032314430304546303143353038314132410D0A3A323031326C
:202D0000343030303030314130303538303243383030373230364335303831413030314120
:202D20003030314530303541303044323037343931323330303231443030454630314335DC
:202D40003038314330350D0A3A323031323630303030303141303035383032433830303743
:202D60003230364335303831433030314130303145303035413030443330373439313233A8
:202D8000303032314430304546303143353038314545300D0A3A32303132383030303030D7
:202DA00031413030353830324338303037323036433530383145303031413030314530306A
:202DC000354130304434303734393132333030323144303045463031433530383230424222
:202DE0000D0A3A323031324130303030303141303035383032433830303732303643353099
:202E000038323030303141303031453030354130304435303734393132313030343145301F
:202E2000303033303243353038333738390D0A3A323031324330303030303242303045413F
:202E40003042443230304430303743353038333730303242303033323030363430303838D2
:202E600031333439313231303034314530303033303243353038334134430D0A3A3230310F
:202E8000324530303030303245303045413042443230304430303743353038334130303265
:202EA00045303033323030363430304543313334393132313030343145303030333032437F
:202EC000353038334342440D0A3A323031333030303030303246303045413042443230307C
:202EE00044303037433530383343303032463030333230303634303036413138343931322A
:202F000031303034314530303033303243353038334431340D0A3A3230313332303030308C
:202F20003033313030454130424432303044303037433530383344303033313030333230E4
:202F40003036343030313631433439313231303034314530303033303243353038343033F5
:202F6000430D0A3A32303133343030303030333330304541304244323030443030374335EC
:202F80003038343030303333303033323030363430303533314334393132313030343145C9
:202FA00030303033303243353038343444340D0A3A323031333630303030303333303045E4
:202FC000413042443230304430303743353038343430303333303033323030363430303858
:202FE0003431433439313236303630363036303634363830303046303336390D0A3A32308E
:2030000031333830303030433030304630433033303130453030304630323044303030460D
:203020003034304230303046303830373030304630303046303030463138303730303046ED
:2030400030303146303034300D0A3A323031334130303030463637374430313646374646EF
:20306000383031303130313031303136373744314536463746463831453145314531453155
:203080004536393745304637363834463830463046304642420D0A3A323031334330303063
:2030A000304630463637374430433646374646383038303430343030303436363744314600
:2030C0003646374630303146314631463146314636383745304637363834303030463046BF
:2030E00036440D0A3A3230313345303030304630463046303030333233313430383033347C
:20310000443134303230333337313430343033334631343031303334333134303030433238
:203120004631343038304336453134303232450D0A3A32303134303030303043334231342B
:203140003034304336353134303130433438313430383030364531343032303036313134ED
:20316000303430303635313430313030363931343030303035313134313830360D0A3A3249
:203180003031343230303030303645313435433134323530313034313730373045303130BA
:2031A000323031323633383135353131363032303531313031424331353645313245383175
:2031C0003532383538313438420D0A3A3230313434303030313636343143343031363537AC
:2031E000323830313832313630313433334343343136374630314630313630313031304129
:20320000304332333031303730313046303530343132303533350D0A3A3230313436303090
:203220003030443234313830313746353031383343343437433138323830313537424531BF
:2032400038303137463032343832304330393839383438323032303938393837304538439A
:203260003032370D0A3A323031343830303043303438323032303230323043303730303331
:203280003630343044414430433844344338444338323530344343303934424133383038FA
:2032A000334331384445413837393034343030340D0A3A3230313441303030303844324288
:2032C0003838383538324331304430433845384534423838383538333030384441443437C8
:2032E00043363030354230393845304438443043434538453444384138374335370D0A3AD0
:203300003230313443303030433039433638333830384338453845344538453430363830AE
:2033200035344530423038303530344331384238383841384543453044384430433843384A
:20334000444345384534423043360D0A3A32303134453030303037343031304434433844B5
:203360003844304343443845384438423043434330393836383338303843434434374337DA
:2033800030303845304443413837413630333431304532453839310D0A3A323031353030A3
:2033A000303045304443413837413730343038383543343031354430434130393538324102
:2033C0004538453044384431453845343838353832384538453442303832363833383038BA
:2033E000434332380D0A3A323031353230303042383843303137383730453444384430432A
:20340000434538453442303830353045384534423038303530343832304534443841383093
:2034200031393837304538453845384538453833310D0A3A323031353430303045384538D7
:203440004538433045384538453845384538453845384538453843303035453834383230F4
:203460003938393837303230433039384538453831383838373043303938373031360D0ABA
:203480003A3230313536303030453845304230393830333538323830304338443844314544
:2034A0003845453930363833393038434545303838363033353038434545303844303133EF
:2034C00038303843414530383844370D0A3A3230313538303030353832434430433844383A
:2034E00044304343433837383630333030304443414137443530303645304338443037389D
:203500003630333430304532453045304343433837413630343042450D0A3A3230313541F9
:2035200030303030303634333043434430434430344338454345303343303843434538454B
:20354000304443443043434538343031344430433843434538453444384434303237303418
:2035600030313036430D0A3A323031354330303044304338443443384334393836383345A5
:203580003038434344384430433845414530444341413743303242303830353045384530C1
:2035A0004443443043434538423838434138374342330D0A3A323031354530303036383321
:2035C0003830384341333043434538453030313938373039384330393836303338303041EC
:2035E000303930423844384130393837303438323045384330393843303032343830410D05
:203600000A3A32303136303030303138343832303938373033433030433039383730384332
:203620003730343032303438323044384234393836383031433845383638343831384438A6
:203640004430433845384238383844440D0A3A3230313632303030353832383630333030E0
:20366000304538343845344438443030324134393842383838354332383230453044384120
:20368000433738453845304438414337383530344331384438383031300D0A3A3230313673
:2036A0003430303030313738433845304438443044304338423042384430433841304238E1
:2036C0004138373835303238313844384138413830323138433843384338423038303530E1
:2036E0003430313042370D0A3A323031363630303030384430453845304530443844384130
:20370000383830363034303130303345384538453845384538453845384538453834383278
:20372000304538453845384538433039383730343831460D0A3A32303136383030303230F3
:20374000453830313130323841303738423038303530343031304438433841303738423093
:2037600038384338433843384430433845303032303832383038373842304434433836332B
:203780000D0A3A323031364130303045344530443843453030374336304430433844364162
:2037A000303743353032453033443032383038433844384143373836433338313044343003
:2037C000303743363033304338414330440D0A3A3230313643303030433843434338434314
:2037E000303144384430433845304438443041433830353033383038434344304338443883
:2038000041383738444344304345453030323730343442303830373431440D0A3A323031F9
:203820003645303030343031304430373837343430313044304538424338383730343031C3
:20384000344138373830314338443844304338433843384530303043384338453044383023
:20386000304130433835350D0A3A32303137303030304430433843384338433843383035A7
:203880003630333430304443443443384345413038303634333230304443443244434435F4
:2038A00043384445443041313834303145304434413232420D0A3A32303137323030303769
:2038C000433530333030344430434344384443433844434430423438323638334330384397
:2038E000454338304544454339433835433341303843434530444344324430434344303821
:20390000430D0A3A32303137343030304241384335433338313643384344453030333341EF
:2039200030384343453238433543323831324434444144344338444338323634333243432C
:2039400044384432373836433032443041350D0A3A323031373630303043434430443443AB
:203960004343384345433843434430433841343830353033343035443844454430453544CC
:203980004130343630333430324534444444304341443039343632333038450D0A3A32307E
:2039A000313738303030303444304530384335413238313444304132393430364431434315
:2039C0004432374335343330303044364344443444384436373935303334303235383243DC
:2039E00031304536433839320D0A3A32303137413030303041414337453543324530344411
:203A00003643434343434541343834353632433045434344434445444344304343444530D6
:203A20003843434145393036344432433845344530444345370D0A3A32303137433030309F
:203A40004432433845344530423038433539324330414530444444303044334130444341F5
:203A600044303743353232383034434144384434433843413743353233343036443844330B
:203A800042300D0A3A3230313745303030373835343039453044434432374335303430319D
:203AA000304434434345304438443043434338453438413538324331304434433830424494
:203AC0003143434430434344414434434135340D0A3A3230313830303030443043434532FE
:203AE00044384434433841343932363033343041433844344338304336433341303843437D
:203B0000444144304534443839343632333030344438423839343632333044320D0A3A32F4
:203B20003031383230303030344430434139303037443844344132393436303334313844B0
:203B400038453445304443443043434530423038303643333830384343433830323341301C
:203B60003837433641393443330D0A3A3230313834303030364432383032413439323543BB
:203B800032383036373935343332303444384138373835343031443043434432434345301A
:203BA000443844304343433845304438443437383530323830460D0A3A3230313836303045
:203BC0003031434438333043384434433830323530393836433338303843384538424338BB
:203BE0003841383738373034343130353832433230453845304234383030313538343031FE
:203C00003032390D0A3A323031383830303038303530333031384438453043384430453037
:203C200044384530363033303030343031304138433830324438303843434532443844347A
:203C4000413038453639334130434338423636310D0A3A32303138413030303831363041C9
:203C600043374136303334303044433033303932433041374442303830353433303043434C
:203C800043443035363838354332434441443141343830353633383031443030320D0A3A70
:203CA0003230313843303030444344304534443844303743363033343030453845344438E9
:203CC0004430434345324438383435303434313030323443313838383543323831304438EC
:203CE000433843434530453046300D0A3A32303138453030304430433841343838353832FF
:203D00003831344230373835303031433845304534443038303534333830384138373836C0
:203D200043333831304338433844434438433843384443433835420D0A3A3230313930308F
:203D40003030303737453031363730303030303230413745303236373030303030463030DE
:203D60003745303436373030303030413030374530383637303130303030303038333031C7
:203D8000363930410D0A3A32303139323030303034303230463030383330323639303430F8
:203DA000333046303038333043363930323030304630303034374530313637303030303077
:203DC00032304137453032363730303030304639390D0A3A32303139343030303030374590
:203DE000303436373030303030413030374530383637303230303034303030313745313844
:203E00003637303030303046303030343038303231303031303039323830323433460D0A86
:203E20003A3230313936303030303034393030353438303131303030323030303430303040
:203E4000313030303430303031463146324633463446354636463746384639313031313165
:203E600032313331343135313630420D0A3A32303139383030303137313831393230323123
:203E80003232323332343235323632373238323933303634313331343134333431343442A9
:203EA0003135303030303032303030383037303330453039303845380D0A3A3230313941C7
:203EC000303030303430463036303930303043303730413035303230353036303030443068
:203EE00031303130303039303430353030304230303033303030413030303130313039307D
:203F000030303039320D0A3A323031394330303030313034303030303030303730303030AA
:203F200030303033303030303030303530303030303030363033303430303030303130316A
:203F40003030303030303030303030383030303044430D0A3A32303139453030303036304A
:203F600030303030303037303030303030303830303032303230303130303130313030302B
:203F8000313034314130353141304131413135314132313141333631413437314133460D75
:203FA0000A3A32303141303030303641314138393141303030313343464530353141303460
:203FC0004537303444423034424430343745464530413141464330343034383230343431BF
:203FE0004644313731413042334344360D0A3A32303141323030303030313236363039314B
:2040000038303945373142414131423535314239393142363631434333314333434645325C
:20402000373141324446463244353532454141313733333137434338410D0A3A32303141A2
:2040400034303030313735353136414146453343314130413033304230433041333030426F
:204060004330313530383135313031353043313533303135303631353630313530373135CB
:204080004530324136410D0A3A323031413630303043333230393933344537334246463177
:2040A000424646303033384646464330373038303330383043303833303038433030383304
:2040C000303039304346443645314146433034303334440D0A3A323031413830303035353E
:2040E0003034414146443746314131383030303030414333304136363041334330413636B0
:2041000030414333464330413046353530464141464439353141303830303038313844455A
:204120000D0A3A3230314141303030303833433038374530384646303042423141424331C7
:20414000414331314143443141443631414532314146313141464631413131314231453107
:20416000423030303145304645424344380D0A3A3230314143303030314131414330464363
:20418000303530383230303830304644433531413030303434303034413030343030464568
:2041A00043443141464330343034343030344130464444383141304235320D0A3A32303147
:2041C000414530303045303030313241303132343031423430314241303142303031434116
:2041E00030464545363141464330383132363031324330313141304644463331413142309C
:20420000303030313945300D0A3A3230314230303030453031393030464330353145363040
:20422000314543304644303531423230303030384530303033424530334245303132453088
:2042400032454130324434304645313731423241453041440D0A3A3230314232303030469B
:20426000433038303732303037343030373830464432323142464330323135413031353077
:20428000303135343031353030464432443142324345303030344231423443314237334123
:2042A000460D0A3A3230314234303030314238463142413331424337314243413142443625
:2042C000314246463742303434383034374234303438343037423130343831303742303203
:2042E00034383032464230304338303044300D0A3A32303142363030303742323034383254
:204300003037423031343830313742383034383830374230383438303846453443314246A1
:204320004330423434343034344338433339394334333334343236433338420D0A3A3230E1
:2043400031423830303030344334413034344634343335453434304234343031464437357A
:20436000314246464643304134363132343639304336433043363638343632443436303720
:2043800046443931314239330D0A3A3230314241303030444546464646464330333441341D
:2043A0003934413042344131333441393234414430344143383441343934413042344130DD
:2043C0003734413236434132344341413043414330344132380D0A3A32303142433030301B
:2043E00043384644413531423432303046463441303046464643303243334638433343374D
:204400003433334646444343314246464333424643334637433346454333464443334642BD
:2044200044330D0A3A32303142453030304333444634334646433337464646314430303093
:2044400030303030303030303030303030303030303030303030303030303030303030305C
:204460003030303030303030303030303041330D0A3A3230314330303030423641464341EE
:20448000444641464341444630303030303030303030303030303030303042424430423033
:2044A000323042364343444542434237423644454232424341433030303038320D0A3A32EA
:2044C0003031433230303030303030303030303030303030303030303030303030303030C6
:2044E0003030303030303043354236433944434330443832304330423844343030303030D3
:204500003030303030303038300D0A3A323031433430303033313339333933383246333076
:20452000333332463330333530303030303030303030303030303030303030303030303052
:20454000303030303030303030303030303030303030303038330D0A3A3230314336303073
:2045600030303030303030303030303030303030303030303030303030303030303030303B
:2045800030303030303030303030303030303030303030303030303030303030303030301B
:2045A0003036340D0A3A323031433830303030303030303030303030303030303030303012
:2045C0003030303030303030303030303030303030303030303030303030303030303030DB
:2045E000303030303030303030303030303034340D0A3A32303143413030303030303030CB
:2046000030303030303030303030303030303030303030303030303030303030303030309A
:2046200030303030303030303030303030303030303030303030303030303032340D0A3AB3
:20464000323031434330303030303030303030303030303030303030303030303030303031
:2046600030303030303030303030303030303030303030303030303030303030303030303A
:20468000303030303030303030340D0A3A323031434530303030303030303030303030302A
:2046A0003030303030303030303030303030303030303030303030303030303030303030FA
:2046C00030303030303030303030303030303030303030303045340D0A3A323031443030E9
:2046E0003030303030303030303030303030303030303030303030303030303030303030BA
:20470000303030303030303030303030303030303030303030303030303030303030303099
:20472000303043330D0A3A3230314432303030303030303030303030303030303030303089
:20474000303030303030303030303030303030303030303030303030303030303030303059
:2047600030303030303030303030303030303041330D0A3A32303144343030303030303049
:20478000303030303030303030303030303030303030303030303030303030303030303019
:2047A0003030303030303030303030303030303030303030303030303030303038330D0A37
:2047C0003A32303144363030303030303030303030303030303030303030303030303030B2
:2047E0003030303030303030303030303030303030303030303030303030303030303030B9
:2048000030303030303030303036330D0A3A323031443830303030303030303030303030AF
:20482000303030303030303030303030303030303030303030303030303030303030303078
:204840003030303030303030303030303030303030303030303034330D0A3A323031444168
:20486000303030303030303030303030303030303030303030303030303030303030303038
:20488000303030303030303030303030303030303030303030303030303030303030303018
:2048A00030303032330D0A3A32303144433030303030303030303030303030303030303008
:2048C0003030303030303030303030303030303030303030303030303030303030303030D8
:2048E0003030303030303030303030303030303030330D0A3A3230314445303030303030C8
:20490000303030303030303030303030303030303030303030303030303030303030303097
:20492000303030303030303030303030303030303030303030303030303030303045330D82
:204940000A3A3230314530303030303030303030303030303030303030303030303030305B
:20496000303030303030303030303030303030303030303030303030303030303030303037
:204980003030303030303030303043320D0A3A323031453230303030303030303030303027
:2049A0003030303030303030303030303030303030303030303030303030303030303030F7
:2049C000303030303030303030303030303030303030303030303041320D0A3A32303145EB
:2049E0003430303030303030303030303030303030303030303030303030303030303030B3
:204A0000303030303030303030303030303030303030303030303030303030303030303096
:204A20003030303038320D0A3A32303145363030303030303030303030303030303030308D
:204A4000303030303030303030303030303030303030303030303030303030303030303056
:204A6000303030303030303030303030303030303036320D0A3A323031453830303030304D
:204A8000303030303030303030303030303030303030303030303030303030303030303016
:204AA0003030303030303030303030303030303030303030303030303030303030303432F0
:204AC0000D0A3A3230314541303030303030303030303030303030303030303030303030EC
:204AE0003030303030303030303030303030303030303030303030303030303030303030B6
:204B0000303030303030303030303032320D0A3A32303145433030303030303030303030A5
:204B2000303030303030303030303030303030303030303030303030303030303030303075
:204B400030303030303030303030303030303030303030303030303030320D0A3A3230318F
:204B600045453030303030303030303030303030303030303030303030303030303030300B
:204B8000303030303030303030303030303030303030303030303030303030303030303015
:204BA000303030303045320D0A3A32303146303030303638363336353534324534353245A2
:204BC00034433030303046343046303030303030303030303030303030303030303030308E
:204BE00030303030303030303030303030303030303034440D0A3A323031463230303030C1
:204C0000303030303030303030303030303030303030303030303030303030303030303094
:204C2000303030303030303030303030303030303030303030303030303030303030304163
:204C4000310D0A3A3230314634303030303030303030303030303030303030303030303075
:204C6000303030303030303030303030303030303030303030303030303030303030303034
:204C800030303030303030303030303038310D0A3A3230314636303030303030303030302B
:204CA0003030303030303030303030303030303030303030303030303030303030303030F4
:204CC0003030303030303030303030303030303030303030303030303036310D0A3A32300A
:204CE000314638303030303030303030303030303030303030303030303030303030303095
:204D0000303030303030303030303030303030303030303030303030303030303030303093
:204D200030303030303034310D0A3A32303146413030303030303030303030303030303083
:204D4000303030303030303030303030303030303030303030303030303030303030303053
:204D60003030303030303030303030303030303030303032310D0A3A323031464330303043
:204D8000303030303030303030303030303030303030303030303030303030303030303013
:204DA0003030303030303030303030303030303030303030303030303030303030303030F3
:204DC00030310D0A3A323031464530303030303030303030303030303030303030303030E3
:204DE0003030303030303030303030303030303030303030303030303030303030303030B3
:204E00003030303030303030303030303045310D0A3A303030303030303146460D0A000037
:204E2000000000000000000000000000000000000000000000000000000000000000000072
:204E4000000000000000000000000000000000000000000000000000000000000000000052
:204E6000000000000000000000000000000000000000000000000000000000000000000032
:204E8000000000000000000000000000000000000000000000000000000000000000000012
:20FFE000000000000000000000000000000000000000000000000000000000000000000100
:00000001FF
